:100000000C9463000C948B000C948B000C948B006C
:100010000C948B000C948B000C948B000C94F402C9
:100020000C948B000C948B000C948B000C948B0024
:100030000C948B000C948B000C948B000C948B0014
:100040000C94CE030C948B000C949C030C947603BC
:100050000C948B000C948B000C948B000C948B00F4
:100060000C948B000C948B000000000024002700EF
:100070002A000000000023002600290000000008DC
:10008000000201000003040700000000000000005F
:10009000010204081020408001020408102001021F
:1000A0000408102000000000250028002B00040494
:1000B0000404040404040202020202020303030310
:1000C00003030200180411241FBECFEFD8E0DEBFE7
:1000D000CDBF11E0A0E0B1E0ECE7F6E102C0059091
:1000E0000D92A833B107D9F722E0A8E3B1E001C02F
:1000F0001D92A637B207E1F710E0C3E6D0E004C0D6
:100100002197FE010E94360BC236D107C9F70E9423
:10011000A5040C943C0B0C94000096E0899FD00140
:100120001124A95FBD4F90967C936E935F9791E0E9
:1001300091969C939197E0917402F0917502909141
:100140007302992339F0309751F0811108C08091E2
:1001500023020994309719F05C968C91FACF089598
:10016000CF92DF92EF92FF920F931F9396E0899FB9
:10017000F0011124E95FFD4F11A2278D30A121303C
:10018000310551F178F02230310509F451C02330A6
:10019000310509F452C01F910F91FF90EF90DF904D
:1001A000CF9008956623B9F361E070E00E948D005E
:1001B0002FB7F8948091660190916701A091680132
:1001C000B09169012FBF80935F0290936002A0936A
:1001D0006102B0936202DFCF9FB7F894C0906601CE
:1001E000D0906701E0906801F09069019FBF009195
:1001F0005F02109160022091610230916202C01A88
:10020000D10AE20AF30A009171021091720230E001
:1002100020E00C151D052E053F0550F462E070E04E
:100220001F910F91FF90EF90DF90CF900C948D0075
:100230006111B1CF63E070E0F3CF70E060E0F0CF28
:10024000AF92BF92CF92DF92EF92FF920F931F93E4
:10025000CF93DF936C017B018B01040F151FEB0122
:100260005E01AE18BF08C017D10759F06991D601D9
:10027000ED91FC910190F081E02DC6010995892B4B
:1002800079F7C501DF91CF911F910F91FF90EF900A
:10029000DF90CF90BF90AF900895FC01538D448DB7
:1002A000252F30E0842F90E0821B930B541710F021
:1002B000CF96089501970895FC01918D828D98172E
:1002C00061F0A28DAE0FBF2FB11D5D968C91928D06
:1002D0009F5F9F73928F90E008958FEF9FEF089537
:1002E000FC01918D828D981731F0828DE80FF11D00
:1002F000858D90E008958FEF9FEF0895FC01918D1B
:10030000228D892F90E0805C9F4F821B91098F7313
:10031000992708958AE691E00E947E0121E0892BC9
:1003200009F420E0822F089580E090E0892B29F0E5
:100330000E948A0181110C9400000895FC01A48D93
:10034000A80FB92FB11DA35ABF4F2C91848D90E0F7
:1003500001968F739927848FA689B7892C93A089DA
:10036000B1898C91837080648C93938D848D981364
:1003700006C00288F389E02D80818F7D80830895F7
:10038000EF92FF920F931F93CF93DF93EC0181E0E5
:10039000888F9B8D8C8D98131AC0E889F98980818C
:1003A00085FF15C09FB7F894EE89FF896083E889BF
:1003B000F98980818370806480839FBF81E090E0B1
:1003C000DF91CF911F910F91FF90EF900895F62E3E
:1003D0000B8D10E00F5F1F4F0F731127E02E8C8DD8
:1003E0008E110CC00FB607FCFACFE889F98980811D
:1003F00085FFF5CFCE010E949E01F1CFEB8DEC0F72
:10040000FD2FF11DE35AFF4FF0829FB7F8940B8F39
:10041000EA89FB8980818062CFCFCF93DF93EC01A3
:10042000888D8823B9F0AA89BB89E889F9898C91DC
:1004300085FD03C0808186FD0DC00FB607FCF7CF98
:100440008C9185FFF2CF808185FFEDCFCE010E9498
:100450009E01E9CFDF91CF910895833081F028F498
:10046000813099F08230A9F008958730A9F0883062
:10047000C9F08430B1F4809180008F7D03C08091F9
:1004800080008F7780938000089584B58F7784BD36
:10049000089584B58F7DFBCF8091B0008F778093D6
:1004A000B00008958091B0008F7DF9CFCF93DF9396
:1004B000282F30E0F901E458FF4F8491F901E0570B
:1004C000FF4FD491F901E255FF4FC491CC23A1F025
:1004D00081110E942D02EC2FF0E0EE0FFF1FEE586D
:1004E000FF4FA591B491EC91ED2381E090E009F4E8
:1004F00080E0DF91CF91089580E090E0FACF862FE1
:100500000C9456021F93CF93DF93282F30E0F9010C
:10051000E458FF4F8491F901E057FF4FD491F9015E
:10052000E255FF4FC491CC23A9F0162F81110E94F0
:100530002D02EC2FF0E0EE0FFF1FEC55FF4FA591C1
:10054000B4918FB7F894EC91111108C0D095DE23C7
:10055000DC938FBFDF91CF911F910895DE2BF8CFF1
:10056000862F642F0C948202CF93DF9390E0FC01DE
:10057000E057FF4F249182559F4FFC0184918823BF
:10058000C9F090E0880F991FFC01E859FF4FA59131
:10059000B491FC01EC55FF4FC591D49161110DC090
:1005A0009FB7F8948C91209582238C93888128237F
:1005B00028839FBFDF91CF910895623051F49FB798
:1005C000F8943C91822F809583238C93E8812E2B85
:1005D000EFCF8FB7F894EC912E2B2C938FBFEACFEF
:1005E000862F642F0C94B4021F920F920FB60F92B5
:1005F00011242F933F934F935F936F937F938F9328
:100600009F93AF93BF93EF93FF938091420190919B
:100610004301A0914401B0914501892B8A2B8B2B7A
:10062000D1F190913D01E0913E01F0913F01808137
:10063000892780838091420190914301A0914401D8
:10064000B0914501181619061A061B069CF48091F4
:10065000420190914301A0914401B091450101975D
:10066000A109B1098093420190934301A0934401F1
:10067000B0934501FF91EF91BF91AF919F918F9101
:100680007F916F915F914F913F912F910F900FBE8E
:100690000F901F90189580910001E2ECF0E0E4913A
:1006A0009FEF90930001E13051F030F0E23069F0BB
:1006B00060E00E948202DECF10926E00F9CF90912E
:1006C0006F009D7F90936F00F3CF909170009D7F9E
:1006D0009093700091E09093B0009091B100987F5A
:1006E00094609093B1001092B300E2CF1F920F92EA
:1006F0000FB60F9211242F933F934F935F936F93F5
:100700007F938F939F93AF93BF93EF93FF938AE66B
:1007100091E00E949E01FF91EF91BF91AF919F9157
:100720008F917F916F915F914F913F912F910F909A
:100730000FBE0F901F9018951F920F920FB60F9239
:1007400011242F938F939F93EF93FF93E0917A015E
:10075000F0917B018081E0918001F091810182FD27
:100760001BC09081809183018F5F8F7320918401E2
:10077000821741F0E0918301F0E0E659FE4F958F3A
:1007800080938301FF91EF919F918F912F910F9013
:100790000FBE0F901F9018958081F4CF1F920F927B
:1007A0000FB60F9211242F933F938F939F93AF9384
:1007B000BF938091660190916701A0916801B0910B
:1007C000690130913C0123E0230F2D3758F5019644
:1007D000A11DB11D20933C01809366019093670198
:1007E000A0936801B093690180913801909139011B
:1007F000A0913A01B0913B010196A11DB11D8093DA
:10080000380190933901A0933A01B0933B01BF9115
:10081000AF919F918F913F912F910F900FBE0F90AD
:100820001F90189526E8230F0296A11DB11DD2CF67
:1008300010926D0110926C0188EE93E0A0E0B0E0A0
:1008400080936E0190936F01A0937001B09371013A
:100850008DE191E090936B0180936A0185EC90E0CB
:10086000909377018093760184EC90E090937901E6
:100870008093780180EC90E090937B0180937A01E3
:1008800081EC90E090937D0180937C0182EC90E07C
:1008900090937F0180937E0186EC90E0909381019C
:1008A000809380011092830110928401109285013F
:1008B000109286011092090210920D0210920C0201
:1008C00010920E028FE291E090930802809307024B
:1008D000E3E2F2E01082148213821582369682E0FF
:1008E000EF35F807B9F785E091E090936A028093BD
:1008F000690281E091E090936C0280936B0284E046
:1009000080936D0280936E0289E091E0909368027B
:10091000809367028AE090E09093700280936F0268
:1009200084EF91E0909372028093710210927502AD
:100930001092740210926302109264021092650287
:1009400010926602109273020895789484B58260C2
:1009500084BD84B5816084BD85B5826085BD85B563
:10096000816085BD80916E00816080936E001092E1
:10097000810080918100826080938100809181005C
:1009800081608093810080918000816080938000ED
:100990008091B10084608093B1008091B00081604B
:1009A0008093B00080917A00846080937A00809177
:1009B0007A00826080937A0080917A0081608093CF
:1009C0007A0080917A00806880937A001092C1004A
:1009D000E0917A01F0917B0182E08083E0917601E1
:1009E000F09177011082E0917801F09179018FEC1C
:1009F000808310928201E0917E01F0917F0186E078
:100A00008083E0917C01F0917D0180818061808311
:100A1000E0917C01F0917D01808188608083E0918C
:100A20007C01F0917D01808180688083E0917C0170
:100A3000F0917D0180818F7D808362E088E00E945B
:100A4000B40261E08DE00E94B402EEE4F1E082E6DF
:100A500091E0119211928E179F07D9F744244A947E
:100A6000542C320122242A94322C809162019091DC
:100A70006301880F991FFC01E25BFE4F2091640126
:100A80003091650140815181241B350B3093650104
:100A90002093640120E420937C0020917A0020645C
:100AA00020937A0020917A0026FDFCCF30917800C7
:100AB00020917900825B9E4F232732272327FC0158
:100AC000318320838091620190916301FC01EE0FDC
:100AD000FF1FE25BFE4FE080F180209164013091C6
:100AE0006501E20EF31EF0926501E0926401019649
:100AF0008A309105DCF5909363018093620181E077
:100B0000809373028FB7F89440916601509167010A
:100B100060916801709169018FBF8091630290912B
:100B20006402A0916502B0916602481B590B6A0BE2
:100B30007B0B80916F0290917002B0E0A0E084176F
:100B40009507A607B70708F023C1C0E080916D02A2
:100B5000C81788F4E0916902F0916A02EC0FF11D68
:100B600062E080810E94B402CF5FF0CF10926301F7
:100B700010926201C4CF912C80916E02981608F0F9
:100B800061C0092D10E0E0916B02F0916C02E00F62
:100B9000F11F61E080810E94B402E0916B02F0914C
:100BA0006C02E00FF11F60E080810E94820281E010
:100BB00090E0A0E0B0E0092C04C0880F991FAA1FA4
:100BC000BB1F0A94D2F75C016C01C094D094812CB5
:100BD00080916D028816F8F4C82DD0E0E09169028A
:100BE000F0916A02EC0FFD1F80810E94560224964C
:100BF000CC0FDD1FC95FDD4F892B41F488819981BE
:100C00008A299B29998388838394E2CF888199815B
:100C10008C219D21F7CFE0916B02F0916C02E00FE7
:100C2000F11F61E080810E94820280916B029091AD
:100C30006C02080F191F60E0F80180810E94B40265
:100C400093949ACF67E0C62E62E0D62EE6018F8D90
:100C500098A1892B21F41C8E3E8E2D8E19A22696EA
:100C6000F2E0C334DF0799F7B12C80916D02B8161A
:100C700008F051C0A12C0B2D10E0000F111F015FD7
:100C80001D4F20916E02A21608F043C0F80160814A
:100C900071810A2C02C0769567950A94E2F7B29E9C
:100CA000900111242A0D311DE7E0F2E080E0458D2E
:100CB000568D2417350709F465C28F5F36968A3042
:100CC000B1F760FF24C0E7E0F2E090E080E0448DFF
:100CD000411118C0E0916702F0916802E20FF31F22
:100CE000408156E0589FF001599FF00D1124E95FB3
:100CF000FD4F448F368F258F10A2178E61E00E9422
:100D0000B00005C0019636968A30910501F7A3948C
:100D1000B8CFB394AACF80E0F60191A19111892FA9
:100D2000F6E0CF0ED11CCC15DD05B1F79FB7F894D6
:100D3000409166015091670160916801709169016D
:100D40009FBF409363025093640260936502709367
:100D50006602C2ECD0E08823D9F080912802882373
:100D6000B9F08091260290912702019789F4609151
:100D70002302611110C080E090E0892B09F475CE48
:100D80000E948A01882309F46DCE0E9400006ACE79
:100D900010927302F0CF8AE691E00E94C00142E017
:100DA00050E065E371E08AE691E00E942001C7010E
:100DB0006AE070E00E94CD0A072E000C880B990BA8
:100DC0000E94D4092AE038E240EA5BE30E94600A0C
:100DD00020E030E040EA50E40E94310922EC35E4A2
:100DE00045E754E40E94600A2CEE31ED42E852E4FB
:100DF0000E94C5080E94A3096B01809100018C30FC
:100E000009F0ABC0FE01C491C7FDA2C061E08CE057
:100E10000E94B402CC2319F0C23009F066C1F12C53
:100E2000E12C60E072E18AE790E0A70196010E9460
:100E3000E10A49015A01DA01C9010197A109B10981
:100E40008F3F9105A105B10509F00CF435C160E4AF
:100E500072E48FE090E0A70196010E94E10A215020
:100E6000310941095109C23009F0E7C082E02F3F42
:100E700031054105510509F00CF45BC060E970EDE6
:100E800083E090E0A70196010E94E10A2150310918
:100E90004109510983E02F3F31054105510509F012
:100EA0000CF447C068E478EE81E090E0A701960179
:100EB0000E94E10A215031094109510984E02F3F84
:100EC000310541055105A9F1A4F164E274EF80E018
:100ED00090E0A70196010E94E10A215031094109E1
:100EE000510985E02F3F31054105510511F108F108
:100EF00062E17AE780E090E0A70196010E94E10AB2
:100F0000215031094109510986E02F3F3105410542
:100F1000510579F070F08AE0B594A794979487947E
:100F20008A95D1F7A5019401215031094109510950
:100F300087E09091B100987F892B8093B100C130F8
:100F400009F4FEC0C23009F40DC1CC2309F4BCC0C1
:100F500061E08DE00E9482020ECF8F3FC9F78CE0E6
:100F600080930001FE01C491CF3F91F3C13021F184
:100F700050F0C23009F43EC0C7FDEACF61E08CE01A
:100F80000E94B40249CF14BC15BC84B5826084BDF4
:100F900085B5816085BDEAEBF0E0E491F0E0EE0F0D
:100FA000FF1FEC55FF4F85919491ECE9F0E0E4913F
:100FB000E0934101C0E02ACF10928000109281009E
:100FC00080918100886080938100809181008160A0
:100FD00080938100EAEBF0E0E491F0E0EE0FFF1F78
:100FE000EC55FF4F85919491ECE9F0E0E491E093AA
:100FF00040010CCF1092B0001092B1008091B0006F
:1010000082608093B0008091B10081608093B100D4
:10101000EAEBF0E0E491F0E0EE0FFF1FEC55FF4F3C
:101020008591949190933F0180933E01ECE9F0E02B
:10103000E491E0933D01C2E0E9CE2F3F3105410547
:10104000510509F00CF44FC068E478EE81E090E0BF
:10105000A70196010E94E10A215031094109510975
:1010600084E0C1113FCF83E02F3F31054105510599
:1010700039F134F162E17AE780E090E0A70196016E
:101080000E94E10A215031094109510984E02F3FB2
:10109000310541055105A1F098F09AE0B594A79467
:1010A000979487949A95D1F7A5019401215031091D
:1010B0004109510985E004C09C0181E0C11139CF8B
:1010C00095B5987F892B85BD27BD40924A015092E6
:1010D0004B0160924C0170924D0180916E008260D4
:1010E00080936E0035CF82E0E9CFF12CE12C60E0F7
:1010F00072E18AE790E0A70196010E94E10A21507F
:1011000031094109510991E021153105F1E04F07FD
:1011100051056CF068E478EE81E090E0A70196015B
:101120000E94E10A215031094109510993E0C1307F
:1011300009F005CF80918100887F892B8093810001
:1011400030938900209388004092460150924701D5
:10115000609248017092490180916F008260809393
:101160006F00F6CE2093B3004092420150924301AB
:10117000609244017092450180917000826080937A
:101180007000E6CE6170BBCD5058BB27AA270E94E5
:10119000DC080C94260A0E94180A38F00E941F0AE4
:1011A00020F039F49F3F19F426F40C94150A0EF43C
:1011B000E095E7FB0C940F0AE92F0E94370A58F3D9
:1011C000BA17620773078407950720F079F4A6F52C
:1011D0000C94590A0EF4E0950B2EBA2FA02D0B019A
:1011E000B90190010C01CA01A0011124FF27591B6C
:1011F00099F0593F50F4503E68F11A16F040A22F72
:10120000232F342F4427585FF3CF469537952795E2
:10121000A795F0405395C9F77EF41F16BA0B620BE1
:10122000730B840BBAF09150A1F0FF0FBB1F661F28
:10123000771F881FC2F70EC0BA0F621F731F841F6B
:1012400048F4879577956795B795F7959E3F08F091
:10125000B0CF9395880F08F09927EE0F9795879553
:1012600008950E9445090C94260A0E941F0A58F00E
:101270000E94180A40F029F45F3F29F00C940F0AED
:1012800051110C945A0A0C94150A0E94370A68F3FB
:101290009923B1F3552391F3951B550BBB27AA272F
:1012A00062177307840738F09F5F5F4F220F331F69
:1012B000441FAA1FA9F335D00E2E3AF0E0E832D031
:1012C00091505040E695001CCAF72BD0FE2F29D034
:1012D000660F771F881FBB1F261737074807AB0706
:1012E000B0E809F0BB0B802DBF01FF2793585F4F7B
:1012F0003AF09E3F510578F00C940F0A0C945A0A6C
:101300005F3FE4F3983ED4F3869577956795B7955C
:10131000F7959F5FC9F7880F911D9695879597F967
:101320000895E1E0660F771F881FBB1F62177307E0
:101330008407BA0720F0621B730B840BBA0BEE1FF5
:1013400088F7E09508950E943F0A88F09F5798F02B
:10135000B92F9927B751B0F0E1F0660F771F881FBA
:10136000991F1AF0BA95C9F714C0B13091F00E94D4
:10137000590AB1E008950C94590A672F782F8827ED
:10138000B85F39F0B93FCCF3869577956795B395FB
:10139000D9F73EF490958095709561957F4F8F4F6A
:1013A0009F4F0895E89409C097FB3EF4909580956F
:1013B000709561957F4F8F4F9F4F9923A9F0F92F1B
:1013C00096E9BB279395F695879577956795B79599
:1013D000F111F8CFFAF4BB0F11F460FF1BC06F5F7F
:1013E0007F4F8F4F9F4F16C0882311F096E911C091
:1013F000772321F09EE8872F762F05C0662371F0B2
:1014000096E8862F70E060E02AF09A95660F771FC5
:10141000881FDAF7880F9695879597F9089597F9B9
:101420009F6780E870E060E008959FEF80EC08958A
:1014300000240A94161617061806090608950024B3
:101440000A9412161306140605060895092E03942D
:10145000000C11F4882352F0BB0F40F4BF2B11F4A1
:1014600060FF04C06F5F7F4F8F4F9F4F089557FD00
:101470009058440F551F59F05F3F71F04795880F02
:1014800097FB991F61F09F3F79F087950895121699
:1014900013061406551FF2CF4695F1DF08C0161645
:1014A00017061806991FF1CF8695710561050894F6
:1014B0000895E894BB2766277727CB0197F908950D
:1014C0000E94730A0C94260A0E94180A38F00E949F
:1014D0001F0A20F0952311F00C940F0A0C94150AA2
:1014E00011240C945A0A0E94370A70F3959FC1F395
:1014F000950F50E0551F629FF001729FBB27F00DC2
:10150000B11D639FAA27F00DB11DAA1F649F662716
:10151000B00DA11D661F829F2227B00DA11D621F65
:10152000739FB00DA11D621F839FA00D611D221F1F
:10153000749F3327A00D611D231F849F600D211D03
:10154000822F762F6A2F11249F5750409AF0F1F086
:1015500088234AF0EE0FFF1FBB1F661F771F881FEF
:1015600091505040A9F79E3F510580F00C940F0A0E
:101570000C945A0A5F3FE4F3983ED4F3869577952E
:101580006795B795F795E7959F5FC1F7FE2B880F95
:10159000911D9695879597F9089597FB072E16F458
:1015A000009407D077FD09D00E94000B07FC05D0FE
:1015B0003EF4909581959F4F0895709561957F4F6A
:1015C0000895052E97FB1EF400940E94F80A57FD1B
:1015D00007D00E94140B07FC03D04EF40C94F80AB9
:1015E00050954095309521953F4F4F4F5F4F08954F
:1015F00090958095709561957F4F8F4F9F4F08957F
:10160000AA1BBB1B51E107C0AA1FBB1FA617B70728
:1016100010F0A61BB70B881F991F5A95A9F7809544
:101620009095BC01CD010895A1E21A2EAA1BBB1B07
:10163000FD010DC0AA1FBB1FEE1FFF1FA217B3079E
:10164000E407F50720F0A21BB30BE40BF50B661FB4
:10165000771F881F991F1A9469F760957095809578
:1016600090959B01AC01BD01CF010895EE0FFF1FC6
:0C1670000590F491E02D0994F894FFCF50
:10167C00FF08050307060A0B043134372A323538C4
:10168C0030333639234142434400000000C001206E
:10169C00014D010D027E015C01700100000000F0A3
:0816AC0002B0027F020D0A00EA
:00000001FF
